:10000000C03C002055230000ABC700004123000086
:1000100041230000412300004123000000000000B4
:100020000000000000000000000000005D2400004F
:1000300041230000000000002924000041230000AB
:100040002126000079D5000021260000212600008D
:100050002126000021260000212600002126000084
:100060002126000021260000212600002126000074
:100070002126000021260000212600002126000064
:100080002126000021260000212600002126000054
:100090002126000021260000212600002126000044
:1000A0002126000021260000212600002126000034
:1000B0002126000021260000212600002126000024
:1000C0002126000021260000212600002126000014
:1000D0002126000021260000212600002126000004
:1000E00021260000212600002126000021260000F4
:1000F00021260000212600002126000021260000E4
:1001000053B94AB9002908BF00281CBF4FF0FF317E
:100110004FF0FF3000F00CB8ADF1080C6DE904CEE3
:1001200000F008F8DDF804E0DDE9022304B07047D0
:10013000704700BF2DE9F04786468C460846089E6A
:10014000154674461946002B40F0C2808542B2FA2B
:1001500082F245D94AB1C2F1200300FA02FC2EFA1C
:1001600003F3954043EA0C0C94404FEA154EA8B2B5
:10017000BCFBFEF8230C0EFB18CC08FB00F943EA8D
:100180000C43994528D9EB1808F1FF3704D299455B
:1001900002D9A8F102072B44A3EB0903A4B2B3FBD5
:1001A000FEFC0EFB1C330CFB00F044EA0344A042AF
:1001B00014D92C190CF1FF3304D2A04202D9ACF1AE
:1001C00002032C44241A43EA07401EB1D440002302
:1001D00034607360BDE8F0874746DDE76346F1E7CA
:1001E00092BB431B01214FEA154EAFB2B3FBFEFC9D
:1001F000200C0EFB1C330CFB07F840EA0343984528
:1002000062D9EB180CF1FF3004D2984502D9ACF159
:1002100002002B44A3EB0803A4B2B3FBFEFC0EFBCD
:100220001C330CFB07F744EA0344A7424ED92C19B0
:100230000CF1FF3304D2A74202D9ACF102032C44E3
:10024000E41B43EA0040C0E7C2F1200320FA03F1B7
:10025000954090402EFA03F303434FEA154EAFB298
:10026000B1FBFEFC0EFB1C10190C0CFB07F841EA5D
:100270000041884504FA02F422D969180CF1FF30D4
:1002800004D2884502D9ACF102002944A1EB08014F
:100290009BB2B1FBFEFC0EFB1C110CFB07F743EA03
:1002A00001439F420ED9EB180CF1FF3104D29F425B
:1002B00002D9ACF102012B44DB1B41EA004192E779
:1002C0006046E3E76146F7E76046A3E76346B7E7C2
:1002D000834206D916B9002108467BE7C6E900E04B
:1002E000F9E7B3FA83F78FB9834201D3724508D88F
:1002F000BEEB020460EB030301209C461EB9002103
:1003000068E73846FAE7C6E9004CF8E7C7F1200C81
:10031000BB4022FA0CF41C432EFA0CF120FA0CF329
:10032000B84001434FEA14490EFA07F5B3FBF9F858
:100330001FFA84FE09FB18300B0C08FB0EFA43EA87
:1003400000439A4502FA07F240D9E31808F1FF305A
:1003500004D29A4502D9A8F102002344A3EB0A0370
:1003600089B2B3FBF9F809FB183308FB0EFE41EA2A
:1003700003418E452CD9611808F1FF3304D28E4514
:1003800002D9A8F10203214443EA0040A0FB0298ED
:10039000A1EB0E014145CE46434602D306D14D4561
:1003A00004D2B9EB020E68EB04030138002EA6D08C
:1003B000B5EB0E0261EB030101FA0CFC22FA07F324
:1003C0004CEA0303F940C6E9003198E74046C5E727
:1003D0004346D9E7034611F8012B03F8012B002A05
:1003E000F9D17047034613F8012B002AFBD1181AE4
:1003F00001387047000000002DE9F0438DB020B9AE
:100400000DB0BDE8F04306F013B84D4C94F83E3003
:10041000DA0700F18C8094F8253004EB83039D6AA1
:1004200094F8313004EB83035F6B95B12E4616F8D8
:10043000020BC0F3801004F0EDFD0368C5F8023034
:100440008388B3802B785B0614D43D4839460CF082
:10045000B4FF94F820300121C3F302030DF12B0007
:100460008DF82B300CF0D0FB024658B90C200DB0A3
:10047000BDE8F083062130460CF09AFB0028E4D159
:100480001220F4E7797828460CF051FF002531233B
:100490002C492570C4E902352B4B6560A0FB010196
:1004A000C01841F1070124A3D3E90023C4E905558D
:1004B000FFF726FEA68F20610CF0B1FE2369234AC8
:1004C00003F2471111600992214A00F10907CDE9B1
:1004D00006422048204A4FF0910CCDE90432A6FB99
:1004E00000014FF6FF73CDE902534FF0020912A34A
:1004F000D3E900230DF12C080CFB0611CDF82C904C
:10050000CDF82080FFF7FCFD0321CDE900503B46EC
:100510004A4628460CF049FE414604F0B7FE002842
:10052000A4D194F83E3043F0010384F83E3000201B
:100530009DE700BFAFF300808D49FD1A0700000062
:100540001816002000CA9A3B8C49FD1A0C16002090
:1005500099500000002AE784F561000000000000C7
:1005600070B590F820308AB0C3F302030D460446FC
:1005700001210DF1230016468DF823300CF044FBC9
:100580007178024628460CF0D2FE1D49A0FB0131CD
:100590001C48181841F1070117A3D3E90023FFF7FE
:1005A000AFFD216905468D421ED2481B0021164A27
:1005B000A21A0223920909931A44144B059309AE17
:1005C0000023CDE90110CDE9033303210696009302
:1005D000D2B218460CF00BFE314604F057FE38B983
:1005E000256100200AB070BDFBD9691A0020DEE742
:1005F0000C20F7E7AFF300808D49FD1A07000000DB
:1006000000CA9A3B8C49FD1A181600209950000028
:10061000F7B50446C56806F083FF002006F0A4FF86
:100620000021084606F092FF00222521082006F04E
:10063000D1FF374B019301A806F0B4FF354940F2D2
:100640005B6007F045F82B79C3F3020262F3C50340
:100650002B71284606F07CFD2F68266838460CF082
:10066000AEFF0644626806F10901012007F06CF94B
:1006700007F0FAF9284605F0C5FE811C3246C9B2DA
:1006800038460CF0AAFF044640B3234A23492448C5
:1006900040F214430BF0C1FB22480726A4FB0001E3
:1006A00019A3D3E9002306FB0411FFF729FD1E4916
:1006B00002461E480BF0B1FB002383F31188BFF301
:1006C0006F8F0323184602DF1948294606F008FFFA
:1006D00006F0BCFF6FF08B0003B0F0BD28460CF0B5
:1006E0006CFF08B90020F7E70B4A12490C4840F2AA
:1006F0002C430BF092FB84F31188BFF36F8F03231D
:10070000184602DFEEE700BF00CA9A3B0000000077
:10071000D6BE898E5555550039040100FF050100EC
:100720005AF800008D49FD1AD5040100AB04010000
:1007300039D60000D1FF000070B59AB00023012621
:1007400008930796CDF82330014620B127480BF0D7
:1007500057FB1AB070BD264D26480BF051FB0FCD4C
:100760000DAC0FC42B6823602349244B0096032251
:100770000DA803F073FD014608B12148E7E707A97A
:1007800008A803F0F9F99DF820300AAC032B27D80C
:10079000DFE803F0022022241A492046FFF71AFE60
:1007A0009DF8213004939DF8223003939DF8233067
:1007B00002939DF8243001939DF8253000931E216B
:1007C0009DF82630104A059412A80AF06BFE0F48D7
:1007D00012A9BCE70E49E0E70E49DEE70E49DCE767
:1007E0000E4A0A2120460AF05DFED9E7E4EF000038
:1007F000C0EC000004F0000030ED000028ED000027
:100800001BF0000041F0000063F0000086F00000E3
:1008100048F000004FF0000059F0000066F90000B9
:1008200008B506480BF0ECFA054803F073F80146EA
:1008300010B104480BF0E4FA002008BDA9F0000054
:1008400039070000E4EF00002DE9F04F91B0840774
:10085000009302F004030293C2F3C20303F1010305
:10086000DDF86890039205460E46059340F0BA8184
:10087000041D30B1072909D86FF01B0011B0BDE885
:10088000F08F01F00706341DC6F10806009B4FF0FB
:100890000008591E4FF0040A4FF0FF330193CDF8C2
:1008A00010804746C34653460DB1009A2260059812
:1008B000002800F3E8809848009A824203D39748C2
:1008C0008242C0F0E080039AA4EB050E92074FEA43
:1008D0009E0000F103810F2F00F2B180002D00F087
:1008E000058107F140020DEB020C019A0CF8200C77
:1008F0000CF8102C049801300490E7E07A285DD8B9
:100900004B280ED8472859D829282DD8252852D029
:1009100054D820287AD02338D0F1000B4BEB000BB1
:1009200074E04C382E2849D8DFE800F07048484879
:1009300048484848484848484B4848484848484834
:100940004859484B4B595959704B6D487048184B92
:10095000184848827F4B48484B487F0000204FF0A2
:10096000000B4FF0040A38E02A38C0B2012202FA24
:1009700000F010EA0E0F49D110F0625C2FD110EA9E
:10098000020B43D06046013C5444B4FBFAF40AFB2A
:1009900004F4002D61D0A3EB050CA444B4453FF64C
:1009A0006BAF002868D1042B47D159F8043B236072
:1009B000043404232AE0019A013A01924FF0000B1B
:1009C00024E011F8010C6C2834D111F8023C00200D
:1009D0006C2B8346C5D14FF0080A5346D3E709F183
:1009E000070929F007090734F9E802AB24F00704E6
:1009F00035B106982044B0423FF63EAFC4E900ABA3
:100A000008344FF0000B4FF0080A534611F8010F5D
:100A1000002878D0BBF1000F7FF470AF2528F5D106
:100A2000019B013301934FF0010B4FF0040AECE7F7
:100A3000584694E700208346A5E7082B02D06FF0C4
:100A400015001BE709F1070929F00709F9E8022356
:100A5000C4E9002308340823D8E768B9042B02D17D
:100A600009F10409A4E7082BE9D109F1070929F0E4
:100A7000070909F10809EDE7059A013A059259F8C5
:100A8000042B009210E7039A900720D5A4EB050EE3
:100A90004FEA9E004FF0010CBEF5007FCFD20F2F22
:100AA000CDD8F5B107F140020DEB020EC0B2019AAC
:100AB0000EF8200C0EF8102CBCF1000F3FF41AAF0A
:100AC00060F07F000EF8200C08F101080137C5F135
:100AD0000802043406924FF6DA7E97E74FF0000CD6
:100AE000DAE7BCF1000F01D00136EFE702980236D9
:100AF0000028EBD10098CDE90631FFF773FCDDE962
:100B000006310644E2E7631BB3F5806F97D23DB927
:100B1000A6F10804E018B1E694E9000020080100FD
:100B2000029A28609B082B709DF81030C2B1EB70C0
:100B300085F80280B8F1000F05D008A80022C5F1A1
:100B4000010C97420ED1C5F101030DF120094FF0C0
:100B5000000A01930DF1300B574512D1601B8DE651
:100B60006B70E5E710F8013B190608D504EB0C0E95
:100B7000B64503F07F033FF67FAE04F8013B013238
:100B8000DFE7B8F1000F03D099F90020002A17DB46
:100B9000029BD3B11AF80B2004F8012B0022019B11
:100BA00098182044B0423FF667AE99F8000004F868
:100BB000010B0099039220460DF0C3FE039A1444E2
:100BC0000AF1010A09F10109C6E799F8002055F870
:100BD00022300093029B45F822300098FFF702FC78
:100BE000421CDCE76FF00D0048E600BF2DE9F04F36
:100BF00097B000AF90F802A0D7F880B03B62CBF37B
:100C0000C0030446FA62BB61894641B94578007861
:100C10000AEB800020444D4517D8A0EB0409E37887
:100C2000FB61BAF1000F02D01BF0010F16D1FB6976
:100C300053BBFB6A1BB13A6A4946204698474D466A
:100C400028465C37BD46BDE8F08F461C3046FFF7AE
:100C5000C9FB0130304409F10109DCE723786268FF
:100C60007A62FA6A9900796104EB8301002A40F004
:100C700000814D460E4601EB0A094FF000084E4533
:100C80004CD101EB0A0610E01BF0020FD1D0237803
:100C90009A007A6162687A62FA6A04EB8301002A38
:100CA00077D14D4601EB0A0690461BF0050F0CBFAD
:100CB00002230123FB62FB6906EB430A0BF00203EC
:100CC000BB625645BCD016F8021B16F8013C54F81E
:100CD0002390AF4B994502D3AE4B994536D3BB69B0
:100CE000002B40D0786A0BF062F800283BD0E94630
:100CF0008AB06A46A84B53617B6AC2E906314FF459
:100D000000731384A54B42F8103FA54800234FF40D
:100D1000125100F013FD023DCD46D2E716F8013B1B
:100D2000F96254F82300FFF75DFBD7F88430F96AC5
:100D300001304BB1D7F8883098453EBFD7F88430A2
:100D400023F8180008F10108054498E7BB6923B1AE
:100D5000786A0BF02CF80028C9D11BF0010F05D1DF
:100D6000FB6AED1AADE7BB6A002BAAD04846FFF735
:100D700039FBD7F8843053B1D7F8883098453FBF56
:100D8000D7F88420431C22F8183008F101080544E4
:100D900097E7BAF1000F72D01BF0040672D0D0466C
:100DA000002607F1480052463B61B9620DF0C9FDCB
:100DB000B96A3B6901EB0A02BA62FA69F969520041
:100DC000FA60BA6A02EB41023A610BF00202BA60C1
:100DD0003A69B96A8A4257D162787A621BF0020F87
:100DE00032440CBF4FEA580100211BF0010FD2B270
:100DF00040F09F801BF0040F14BF40460020BB61F1
:100E00006270A070E1703A6A7969FB6A204698477F
:100E1000051EFFF615AFBB6923707B6A6370FB6923
:100E2000E37041463A6AFB6A84F802A007F1480081
:100E30009847B0F10008C0F2B5807B693A6AA9EB27
:100E40000A01C91AFB68C91AD7E90A03984700289A
:100E5000C0F2AA80A84408EB00054FF0000B07F190
:100E6000380AB34567D300213A6AFB6A08469847B7
:100E7000E6E656464FF0000807F1380093E756467D
:100E8000D04697E7B04695E7BA6A12F8021BBA62F5
:100E900012F8015C3E4A54F82500904202D33D4AC4
:100EA00090421ED3BA6932B1786A7B600AF07FFF44
:100EB0007B6800288CD1BA6802BB08F1280207F1D0
:100EC000300C08F10100944407F1580252FA80F006
:100ED00008F102080CF8101C5FFA88F800F8105CA2
:100EE00076E7BA693AB1786A7B600AF060FF7B689E
:100EF00000287FF46DAF1BF0010F09D006F1280226
:100F000007F13000711C161806F8205CCEB25FE7BE
:100F10001BF0040F3FF45CAF08F1280207F130002A
:100F200008F1010102EB000808F8105C5FFA81F893
:100F30004EE7002063E71BF80A3087F8373054F893
:100F40002390D7F88430FBB133F81B803A6AFB6AF0
:100F5000012107F137009847002825DB0544B8F147
:100F6000000F06D14846FFF73DFA00F101081FFACD
:100F700088F83A6AFB6A414648469847002813DBDE
:100F800005440BF1010B6CE7D7F88480DEE700BF66
:100F900094E9000020080100D0F0000004000001E6
:100FA00044EC000045464BE6054649E6014B186017
:100FB000704700BF3001002080B505460E46174639
:100FC000984609F027FF03460DF0DAFCDFF8189089
:100FD000044649F80030424630463946A84754F89E
:100FE000090001F0CFF900BF080000002DE9F0472B
:100FF000058B04462807904611D4022905F0070501
:1010000040F0CC8020460BF067F978B10138218B95
:10101000042811D8DFE800F0C2106D859500012981
:101020000CBF45F0100545F02005258388F3118895
:10103000BFF36F8FBDE8F08701F0070AAA4500F003
:10104000A5800027B9463E46A368002B00F0BC806F
:1010500041F00801218388F31188BFF36F8FA168E5
:10106000002900F0BA800D68002900F0B680D1F8A0
:101070000480334652462046C047002D76D02B6868
:1010800029461D46F0E701F007035A1F012A1BD825
:10109000002221F00701062B276889B2C4E900224B
:1010A00009D13B4603E0628B013262831B68002B4F
:1010B000F9D141F00201218320460BF00DF90028FF
:1010C0007AD041F0200176E0042B0AD121F007010B
:1010D00089B2218320460BF0FFF810B141F02001C6
:1010E0002183218B01F0070AAA454FD00027B9467A
:1010F000AAE7236921F0070141F00601062DD3F884
:10110000009021832DD1B9F1000F3FD041F00801AB
:10111000218388F31188BFF36F8F3A492046C8476F
:1011200029E021F00701236941F0040189B2042D6F
:10113000D3F804902183E6D000273E464FF0040AFE
:1011400082E721F00701236941F0050189B2052DED
:10115000D3F808902183D6D000273E464FF0050AE9
:1011600072E700273E464FF0060A6DE72B4687E7F9
:10117000B9F1000FD1D1EFF31188202383F3128846
:10118000BFF36F8F238B23F008032383258BEA069D
:101190002ED525F01003238305F007056669218B02
:1011A000002EBFF670AF00232768C4E9003321F09A
:1011B000070141F001012183218B01F0070AAA45B3
:1011C0004FF000097FF440AF002F9CD041F00801A0
:1011D000218388F31188BFF36F8F002FC8D03D683B
:1011E00039463346524620460BF0A2F82F46F4E724
:1011F000AB067FF51BAF25F02003238305F0070521
:1012000000E700BF5DC300002DE9F047DFF858801C
:10121000044607464FF0010914B93846BDE8F08787
:1012200094FAA4F5B5FA85F509FA05F32E0108EB51
:1012300005156FEA030A24EA03042B7B002BEBD08D
:1012400058F806301B694BB9464404227368284697
:10125000196807EA0A0700F05DFADDE728469847B3
:101260000028D9D1F0E700BF9CEC000030B5104950
:10127000104889B000220DF08BF90F4D0F49002264
:101280000023CDE9062300240E23CDE90334CDE964
:1012900001440B4B00944FF44072284609F0ECFADD
:1012A000084928460CF0CBFF204609B030BD00BFEE
:1012B000C912000080080020F8030020401E002012
:1012C000B915000084F10000014809F08FB800BF93
:1012D0005C0300202DE9F04780461F480F460BF0C5
:1012E0001AF90646002830D000252846BDE8F087C8
:1012F000237B6BB12368DB680BB1204698472368DA
:101300001B69D3B9636804221968204600F002FA09
:10131000013610344C45EBD3B8F1000FE5D0002D69
:10132000E2D02846FFF770FF0546002FF7D00021D6
:101330004FF4A47009F050FDF1E7204698470028CB
:10134000E0D00AFA06F31D43E2E7044CDFF8109000
:1013500005464FF0010ADDE7480D00209CEC000037
:10136000BCEC0000014B53F8200070475CED00001E
:1013700008B5034608462BB1044A136000F06AFC26
:10138000002008BD6FF01500FBE700BF340100200E
:1013900010B5044C237813B9034809F027F801234A
:1013A000237010BD521900205C03002010B50446C4
:1013B00008480BF0B0F85CB1BFF35B8F064B53E805
:1013C000001F013943E80012002AF8D1BFF35B8FF8
:1013D00010BD00BF400D0020440D00200020064B32
:1013E000BFF35B8F014653E8000F43E80012002A69
:1013F000F9D1BFF35B8F7047400D002070B5FFF748
:10140000EDFF084C084E0546B44200D370BD63683A
:101410005B792BB123685B6813B129462046984756
:101420001034F1E79CEC0000BCEC000010B5044C5B
:10143000044920460AF0F8FD034B1C6010BD00BFB4
:101440000403002048ED0000380D0020084A094838
:1014500008B500231370084A1360084A4FF400418E
:101460001360FFF785FFBDE80840FFF7DFBF00BF4F
:101470005319002013C50000400D0020440D00202A
:1014800001460022014800230AF0EFBD04030020BA
:1014900001480AF085BE00BF04030020024B01464C
:1014A00018680AF0D1BE00BF380D002001480AF0CC
:1014B00006BF00BF0403002070B5284B1878002831
:1014C0004BD0FFF7E5FF054690B1BFF35B8F244B90
:1014D00053E8001F013943E80012002AF8D1BFF396
:1014E0005B8F204C204EB4422DD32846FFF7D6FF09
:1014F0001E4B1F4C1B68002B19DD0DF002F84FF43A
:101500007A72A0FB020302FB0131C30BD4E9002075
:1015100043EA41439B1A4FEAD13140F2E93261EB91
:101520000001934271F1000101D3FFF767FFD4E995
:10153000003213F57A7342F10002C4E90032BDE8CB
:101540007040FFF7B3BF63685B7923B12368294616
:101550001B68204698471034C5E770BD521900201B
:10156000440D00209CEC0000BCEC0000400D00206D
:101570007808002070B50D4D297861B90120FFF77A
:10158000A9FE0B4C0B4EB44206D3FFF795FF002883
:10159000FBD101232B7070BD63685B791BB123689D
:1015A00020469B6898471034EDE700BF5319002090
:1015B0009CEC0000BCEC000000212DE9F04708463F
:1015C000FFF788FE044658B340F267684FF0000901
:1015D0000DF0D6F91B4B1C4A1B58136033B11B4B43
:1015E0001B68092B02DD1A4808F000FF194FDFF8CD
:1015F00060A0002544B12046FFF706FE044618B956
:101600004FF0FF384FF0FF39FFF756FF064628B975
:10161000B5B942464B46504608F00CFF3546E9E75F
:101620004FF0FF384FF0FF39D2E72B689B691BB1B1
:1016300000221146284698471035BD42F5D3E8E709
:10164000054DFAE7080000003C0D0020440D002085
:101650005C030020BCEC00009CEC000013B51848B3
:101660000AF059FF174B1B7873B1EFF31184202355
:1016700083F31288BFF36F8FFFF71EFF84F3118887
:10168000BFF36F8F02B010BD0F4B1B68002BF9D05A
:1016900050B900220023CDE900230C484FF400424A
:1016A000002309F01FFEEDE70928EBD107480CF0F5
:1016B0007BFF074802B0BDE8104008F097BE00BFAE
:1016C000440D0020531900203C0D0020800800200C
:1016D0005C03002010B5064B1B6804469847214662
:1016E000A06004480AF03DFDBDE81040FFF7B6BF1A
:1016F0003401002004030020044A054B9B1AB1EB7F
:10170000D30F34BF52F83100002070470CEC0000BA
:101710009CEC0000084BC31A10B41B114468013341
:10172000237143689A7143681960436801225A71B2
:1017300010BCFFF72DBE00BF9CEC00002DE9F04F60
:101740008FB004AFC1F34A28B8600D4691467B6064
:101750000C0DB8F1000F63D0002607F114034FF011
:10176000040B4FF00A0AC7F80C80C7E907667E62CF
:101770000193CDF808B0CDF800A007F11C03F9687B
:1017800032464846FFF732FAB0F5006F03461CD3E5
:101790006C468AB0D9F8041004AB2648C3E90501A9
:1017A00040F2FF71D9611A464FF400711984224B3F
:1017B00042F8103F214833464FF41251FFF7BEFF65
:1017C000A5462C37BD46BDE8F08FC0F30A0804F1EA
:1017D0001700184420F0070080083B60FFF750FE18
:1017E00068F35325044690B13B68154AC7E90836AB
:1017F00000F1100107F11403F961CDE900A3CDF860
:1018000008B0F96807F11C034846FFF7EFF968F3E1
:1018100053257B68B9682A4620460AF0B2FED0E715
:1018200004F1170020F007008008FFF729FE0446A6
:10183000EDE700BF99F100000400000154EC000046
:1018400057C500002DE9F04F87B0DDE91269DDE9E9
:10185000105A04460F4693469846A6B31021CDF879
:101860000090334652460020CDF81490FEF7ECFF6E
:10187000014605F117000844144B039104F00704D6
:101880000BF0070BE40020F0070003EA412344EAD1
:101890008B1480081C43FFF7F3FD44EA055405460A
:1018A00040B13EB10399CDF8009033465246103016
:1018B000FEF7CAFF434622463946284607B0BDE830
:1018C000F04F0AF05EBE3146D3E700BF00FE0F00C6
:1018D000406820B1034BC01A40F3CF0070474FF06F
:1018E000FF3070470CEC00000EB403B503AB0146AB
:1018F00053F8042B0448019301F02EF802B05DF870
:1019000004EB03B0704700BF97C60000CA0605D4B9
:101910008B064CBF02490349FFF7E6BF704700BF83
:10192000D9F10000D8F100002DE9F04F89B09B46B5
:10193000149B06939DF84CA0159B0593169B179E30
:10194000049304460D469046BAF1000F00F09D80C6
:1019500006F4807307930AF0FCFD06F002090246C4
:1019600000283ED091492046FFF7BEFF0746B9F157
:10197000000F08D016F0440F35D18D492A46204675
:10198000FFF7B2FF074406F0010353B1894B8A49C0
:1019900053F82A20894B2046002A08BF1A46FFF731
:1019A000A3FF06F48073002B49D006F00803002B38
:1019B00063D1B8F1000F66D0814942462046FFF757
:1019C00093FF0546069B3D44002B6DD1049B002BE5
:1019D00073D1F30700F1E48031462046FFF796FF0C
:1019E000D8E00746C3E7774B18680028CAD0764B83
:1019F0004FF47A791B68B5FBF3F54FF46161B5FBE1
:101A0000F0F300FB135509FB05F54FF03C0CB3FB5D
:101A1000F1F201FB1231B5FBF0FEB1FBFCF300FB70
:101A20001E550CFB131109FB05F50091B5FBF0F5F4
:101A30006649CDE901E52046FFF756FFA2E706F02B
:101A40000803EBB1624B634953F82A202046FFF7A5
:101A50004BFF0546B8F1000F05D0594942462046D4
:101A6000FFF742FF0544BBF1000FABD05A495A467D
:101A70002046FFF739FF0544A4E74FF0000BE1E7EC
:101A800006F00805E6E745469CE7BBF1010F069B1B
:101A900006D1002B64D1049B002B7BD000250CE0E9
:101AA000002BF8D04D485CE04D48069B4D4922463E
:101AB0000AF04CF9049B002B68D0DFF82C81DFF88A
:101AC0002C91049F3146102F204628BF1027FFF786
:101AD0001DFF4FF0000B5D4545DC059B49461A781C
:101AE0002046FFF701FF4FF0010B1BF0070F03D15A
:101AF00041462046FFF7F8FE5F453BD9059B494626
:101B000013F80B202046FFF7EFFE0BF1010BBBF1A2
:101B1000100FEAD1364920464FF0000BFFF7E4FEE4
:101B20005A46059B9A5CA2F120015F2928BF2E220C
:101B300030492046FFF7D8FE0BF1010BBBF1100F27
:101B40001DD01BF0070F03D141462046FFF7CCFE06
:101B50005F455A46E5D841462046FFF7C5FEEBE70C
:101B60001F485546A1E741462046FFF7BDFE0BF151
:101B7000010BB0E720492046FFF7B6FEC5E7059BFD
:101B80003B440593049BDB1B04939AD1BAF1000FED
:101B90007FF41FAF204609B0BDE8F04F0AF06EBDDC
:101BA000064A05492046FFF79FFE15E7E0F10000D1
:101BB000E4F100006CED000019FB0000DBF1000017
:101BC00009F20000500D00204C0D0020EDF1000046
:101BD00080ED00000DF2000013F20000CDC6000001
:101BE00097C600005929000020F2000018F20000FA
:101BF00022F2000024F200001EF2000073B542F24F
:101C00000F738B4228BF0B4605680F4A0446052117
:101C1000684609F047FC63680C495B6806460B227E
:101C200028460AF01DFD63683246694628465B680F
:101C30000AF016FD636806495B681B2228460AF015
:101C40000FFD02B070BD00BFED00010043F20000C7
:101C500027F20000074A00210123904206D8064AD5
:101C600001B901231360054B1860704740085B0001
:101C70000121F2E740420F004C0D0020500D0020E2
:101C8000014B01221A70704754190020014B0020AB
:101C900019607047680D0020024B034801221A703A
:101CA0000AF0ECBC55190020B0ED00000148FFF728
:101CB000A5BF00BFB0ED000010B5064B18680C467C
:101CC000FFF750FB21460346BDE8104002480F22B3
:101CD000184700BF680D0020B0ED000010B9074B99
:101CE00018707047064B1B781BB141F288300CF01E
:101CF00079B8A420002109F06FB800BF5419002062
:101D0000551900202DE9F843DFF874901D4F8046E7
:101D10000E46042499F8005095B908F0B1F8284609
:101D20003246414608F05EF8054608F0B3F8E5B1E2
:101D300001233B7099F8003073B93046BDE8F88351
:101D400032464146002008F04DF80546EFE72046B0
:101D5000FFF7C4FF651E2C46002008F087F8002816
:101D6000EBD03B78002BF2D1E7E73B78002BE4D0B7
:101D7000013C2046FFF7B2FF3B78002BCAD1DCE7DD
:101D80005519002054190020F8B5074F0D46044698
:101D90004618B44201D12846F8BD14F8011BBB68AF
:101DA00001485B689847F4E778EA0000014B03605C
:101DB00000207047F4ED00002DE9F047064600AF23
:101DC0000C46002936D0E9468AB0D1E90012A36852
:101DD0006D462148A8464FF0050AC5E90501C5E949
:101DE000072348F810AF1D48424600234FF4215105
:101DF000FFF7A4FCCD46D4E903126369AD46184849
:101E0000C5F810A0C5E90501C5E90723134800235B
:101E100042464FF42151FFF791FCCD46E369114A48
:101E20000E4801210AF006FCA3690F4A0B48012164
:101E30000AF000FC012E07D1EFF305830B4A074897
:101E4000103B31460AF0F6FB2146304608F038F8E0
:101E5000BD46BDE8F08700BF95F2000084EC0000AD
:101E6000C4F20000F3F2000002F3000030F30000BF
:101E700030BFFFF7FDBF00BF2DE9F0410B4EDFF88B
:101E8000308006EB0807CC1B054632460949204640
:101E90000CF057FDA01942460021083C0CF05FFDF4
:101EA0006C6707F10800BDE8F08100BF000000008A
:101EB00004000000BCEC0000074A936893F90E1080
:101EC000002907DB526993421FBF044A536843F05D
:101ED00080535360704700BF1819002000ED00E0E8
:101EE00070B5294C06460D46284829490AF064FC7D
:101EF000A36AD9043CD5254826490AF05DFC172081
:101F0000A36A1A0504D5214823490AF055FC182074
:101F10001D4CA36A9B0512D51C4820490AF04CFCB5
:101F2000A36BA26A100409D51D4A184801210AF0C2
:101F300081FB1EB1A36A23F40043A3621920124C53
:101F4000A36A590504D5114816490AF035FC1A2030
:101F5000A36ADA050ED50D4813490AF02DFC1B20A3
:101F6000094A936A43F47F43936200232B7070BD48
:101F70001620C5E7A36A9B04F2D504480B490AF072
:101F80001BFC1C20ECE700BF00ED00E084EC00002F
:101F900043F3000059F300006AF300007DF30000F2
:101FA00096F30000ABF30000C6F30000DEF3000080
:101FB00010B5204C204921480AF0FEFBA36A990184
:101FC00036D51E481E490AF0F7FB1E20A36ADA0127
:101FD00004D51A481B490AF0EFFB1F20154CA36AD1
:101FE0001B0304D5154818490AF0E6FB2120A36A13
:101FF000590304D5114815490AF0DEFB22200D4C87
:10200000A36A9A0304D50D4811490AF0D5FB232091
:10201000A36ADB0304D509480E490AF0CDFB24204E
:10202000044A936A6FEA03436FEA1343936210BD55
:102030001D20CBE700ED00E00DF4000084EC000073
:1020400025F4000038F4000052F4000070F40000A1
:1020500095F40000AFF400002DE9F843364D8046BA
:1020600089463648364917460AF0A6FBAB6ADE06B3
:1020700027D5344931480AF09FFB1124AB6A1D076C
:1020800004D531492D480AF097FB12242A4DAB6A3A
:10209000980718D52D4929480AF08EFB6E6BAB6A5C
:1020A000190646D52A4A2548334601210AF0C2FAC4
:1020B000B9F1000F03D0AB6A23F08003AB621324A5
:1020C00003E01024DAE76FF015061B4DAB6ADA0760
:1020D00004D5204919480AF06FFB1424AB6A9B060B
:1020E00004D51D4915480AF067FB1524124B9A6A5E
:1020F000D50602D49A6A90070AD55B68190507D5F8
:102100004146304600F042FA10B180F309880224BB
:10211000094B9A6A920642BF5A6A22F400525A62E6
:102120009A6A42F0FF029A6200233B702046BDE8A3
:10213000F8836FF01506C2E700ED00E084EC0000C4
:10214000DAF40000F0F400006AF3000023F5000068
:102150003BF5000051F50000DEF300002DE9F041F1
:10216000664B8AB0D3F8048000AF0446C8F3080574
:10217000002686F31188BFF36F8F02F07F43B3F11F
:102180007F4F07D102F00C03082B12D15C495D4848
:102190000AF012FB002634460023FB71EB1E092BCC
:1021A00000F28A80DFE803F00A80837D88888888CF
:1021B000888610074CBF0C460126EDE7524951486E
:1021C0004E4D0AF0F9FA0023FB71EB6A9A0705D528
:1021D0004E494C480AF0F0FA002333E0EB6A002B3A
:1021E00001DA4B49F5E7EB6A5B00F5D5494945480B
:1021F0000AF0E2FA6B69A26943F480736B61BFF382
:102200004F8FBFF36F8F6B6932F8022C23F480730A
:102210006B61BFF34F8FBFF36F8F4DF602739A421E
:1022200009D0AB6ADBB27BB3FA1D01212046FFF770
:1022300013FF034606E02368374A324801210AF0BB
:10224000F9F92368FA79DAB907F1080504F1200CE5
:10225000206861682A4603C2083464451546F7D1F0
:102260007A6A002E44D0C2F3080121B96FEA5222E3
:102270006FEA42227A6207F108011846FFF79CFDD7
:102280002837BD46BDE8F081AB6A13F47F4F04D018
:10229000F91D0120FFF724FECBE7AB6AB3F5803FC1
:1022A0009AD3FFF785FEC4E7FA1D0021BEE7F91DAA
:1022B0000020EFE719498CE7194A1A4B18F4F87F08
:1022C000E8468AB018BF13466A461749C2E90513A3
:1022D0004FF400731384103D144BD56142F8103F46
:1022E000084800234FF41151FFF728FAC54673E759
:1022F00022F4FF7222F00102BCE700BF00ED00E013
:102300009EF5000084EC0000C9F50000E0F5000037
:1023100001F600000FF600002EF600004AF600005D
:1023200085F5000070F500006EF600000400000165
:10233000024A536943F010035361704700ED00E017
:10234000EFF30880EFF3098101B57246FFF706FF4E
:1023500001BD00BF06F0F2FE202080F3118808487E
:102360004FF40461401880F30988EFF314800221D0
:10237000084380F31488BFF36F8F00F0C7F80000A4
:10238000002F0020084B9B6883420BD1EFF305839D
:1023900043B1064B5A6842F080525A605A6A22F49E
:1023A00000425A620CF050B81819002000ED00E00D
:1023B000094A93686FF00A01D967084998674B6822
:1023C00043F080534B60002383F31188BFF36F8F7A
:1023D0009368D86F704700BF1819002000ED00E027
:1023E00010B50446EFF31183202383F31288BFF363
:1023F0006F8F0A4B58699860094B4FF000625A6022
:10240000084B426F1A600022836F826783F3118842
:10241000BFF36F8F00F022F9204610BD181900207D
:1024200000ED00E0980D00200B498A684FF0300065
:102430001044EFF3098C80E8F01F74467046FFF7F4
:10244000CFFFA64604498A6802F1300090E8F01FE9
:102450008CF3098870470000181900201EF0040F43
:102460000CBFEFF30880EFF30980816911F8021CBB
:102470000229FFD001B50AF094F901BD40B200284D
:1024800007DB044A4109012300F01F00834042F8A2
:102490002130704700E100E040B200280CDB430926
:1024A000064900F01F0020330122824041F823201A
:1024B000BFF34F8FBFF36F8F704700BF00E100E0A5
:1024C000054B420900F01F0053F82220012303FAB4
:1024D00000F01040704700BF00E100E040B200286B
:1024E000A8BF00F1604001F10101B8BF064B4FEAFF
:1024F0004111ACBF00F5614000F00F00C9B2B4BF9C
:10250000195480F80013704714ED00E00F4A08B525
:102510000F4B22F07F029A60BFF34F8FBFF36F8F94
:10252000D3F8882022F47002C3F88820EFF31483D4
:1025300023F0040383F31488BFF36F8F07F0AAFD21
:1025400008F006FD00F060F807F0E8FD000000006C
:1025500000ED00E042F8203C009B42F81C3C0A4998
:10256000019B42F8183C029B42F8143C21F0010107
:102570004FF0807342F8043C42F8081C0023203AD4
:1025800002658367704700BFB90F0000094A034620
:10259000906870B113F1160F406E05D0A0F14002A3
:1025A0009A4205D8834203D2814228BF0020704757
:1025B000002070471819002008B515460B4A0C4B2F
:1025C0009060426F1A600E4600F048F82C4686F381
:1025D00009884FF00000074B984720464FF0000154
:1025E0004FF000024FF00003034C20471819002061
:1025F000980D0020C9C70000B90F0000014B102240
:102600001A61704700ED00E0044800232021C21841
:102610000133302B82F80013F9D1704700E100E05C
:1026200008B5EFF30583064A103B02EBC30152F8ED
:10263000330049688847BDE80840FFF73DBC00BF4C
:102640008CEA0000024B034A0348012100F08AB8DB
:102650000000042000000020F4ED0000426E054B55
:10266000403A1A60044A4021C3E901121846012188
:1026700000F082B89C0D002000000B1508B5034641
:102680001048D0F89020C2F30722013A934207D9AC
:102690000D480E4A012109F0CDFF6FF0150008BD6D
:1026A000C0F898300A6822F01F021A4342F0100264
:1026B000C0F89C208A6842F00102C0F8A0201846A9
:1026C000EDE700BF00ED00E06CEC000085F60000D7
:1026D000F0B50E4685B01F4604460025B5420DDA1A
:1026E000606810B397B1431E18420AD0104A1148CF
:1026F0002B46012109F09EFF6FF01502104605B030
:10270000F0BD1F28F2D921680B42EFD12368019355
:102710000AF07DF8A36801A90343D0B20393FFF741
:10272000ADFF10F1160FE7D0421C01350C34D5E790
:10273000ABF600006CEC0000044B0522C3F89420BB
:10274000BFF34F8FBFF36F8F704700BF00ED00E006
:10275000BFF35F8F024B0022C3F89420704700BF85
:1027600000ED00E010B5034C01232278FFF7B0FF25
:10277000207010BD6719002008B50B4A002312789D
:10278000FFF7A6FF10F1160F07D0084A0021D2F874
:102790009030C3F30723984200DB08BDC2F89800CD
:1027A000C2F8A0100130F2E76719002000ED00E048
:1027B000F0B559485949D0F890300D68C3F3072354
:1027C0009D4285B000F2A580FFF7C2FF4968002254
:1027D000954201F10C0117D1514C524F25706846BA
:1027E000FFF7E4FA00250646AE4220D123784A4995
:1027F0000020D1F89020C2F307229342C0F28380D8
:10280000FFF79AFF00202DE0C0F8982051F80C3C0B
:1028100023F01F03134343F01003C0F89C3051F81A
:10282000043C43F00103C0F8A0300132D0E7009827
:1028300000EB05114FEA051CCB683B40B3F5000FD8
:102840004FD011D8B3F5001F35D0B3F5800F3DD070
:10285000B3F5801F17D0344A3448012109F0E1FE56
:102860006FF0150005B0F0BDB3F1807F42D0B3F139
:10287000007FF0D150F80C3088684A6809F0C7FF33
:1028800040F4802009E050F80C3088684A6809F06C
:10289000BEFF40F0885040F43020039001A920781A
:1028A000CDE90123FFF7EAFE0028D9DB23780133C5
:1028B0002370013598E750F80C3088684A6809F0B1
:1028C000A6FF40F0885040F40020E6E750F80C30B6
:1028D00088684A6809F09BFF40F0E06040F40030EF
:1028E000DBE750F80C3088684A6809F090FF40F048
:1028F0008270D2E750F80C3088684A6809F087FF88
:1029000040F08870C9E7C1F89830C1F8A0000133E1
:102910006FE74FF0FF30A5E700ED00E000EE0000AC
:10292000671900200000F0FFCEF600006CEC0000FC
:1029300008B5024B1B689847002008BDA80D002071
:10294000034B044A1860937843F002039370704776
:10295000A80D002040010020F0B587B007460E46C4
:1029600014460021102268461D460BF0F8FF022392
:102970008DF802302A46054B019321466846CDE981
:10298000047608F0BBFD07B0F0BD00BF2FC8000003
:1029900008B50649064821F00701C1F1005202F5C9
:1029A000802209F096F9002008BD00BFCF46002024
:1029B000AC0D00200E4A0123C2F840354FF0804292
:1029C0004FF08051C2F87835D1F83001082808D18D
:1029D000D1F83411052904D80648415C09B1C2F880
:1029E00038364FF080430122C3F88025002070471D
:1029F00000E00140FFF6000020B1034B800143F0EE
:102A000001031847704700BF20ED000008B50448D7
:102A10000BF0EDF900280CBF6FF01200002008BD8C
:102A200050EA00000E4B402970B528BF40210D4CE4
:102A300046181D46B04203F1020304D1002305F8F5
:102A40001130074870BD02781209A25C03F8022C0D
:102A500010F8012B02F00F02A25C03F8012CE9E749
:102A6000861900201CF7000030B503788BB00446AF
:102A700007AD032B21D8DFE803F0021A1C1E124910
:102A80002846FDF7A7FC059563780493A378039384
:102A9000E37802932379019363790093A3790B4A36
:102AA0000B481E2108F0FEFC09480BB030BD094957
:102AB000E6E70949E4E70949E2E7094A0A21284625
:102AC00008F0F0FCDFE700BF41F0000063F0000019
:102AD0006819002048F000004FF0000059F0000095
:102AE00066F9000038B5054605480AF016FF0446A9
:102AF00020B101210C300AF053FF2576204638BD65
:102B0000CC03002010B531B109480AF006FF044695
:102B100030B9204610BDBDE810400120FFF7E2BFEC
:102B200001210C300AF03CFF01232376F1E700BFBE
:102B30007403002037B502EBC303044608469A42EB
:102B400002D16FF05E0010E0114611F8085BA5425B
:102B500011D1038A5178994209D90848084A00944A
:102B6000012109F071FD6FF0150003B030BD53680D
:102B700098470020F9E70A46E1E700BF34EC00007F
:102B800035F7000010B501210C300AF024FFBDE834
:102B900010400378024A0348012109F061BE00BFDA
:102BA00057F7000034EC000010B5074907480BF058
:102BB0000BFB031E06DABDE81040054A054801215B
:102BC00009F04EBE10BD00BF64010020380900208E
:102BD00079F7000034EC000098B5012100AF0446FD
:102BE0000C300AF0F8FE104A007800232146FFF767
:102BF000A1FF5F3016D1218AE068FFF713FF6C4612
:102C000088B06A46094BC2E905304FF400739383DC
:102C1000074B42F8103F074800234FF4E451FEF7FA
:102C20008DFDA546BD4698BDA0EE000096F70000BC
:102C30000300000134EC0000B0B50B460D8A00AF74
:102C400004462946D868FFF7EDFE8AB06A46094B6C
:102C5000C2E9053440F202439384074BC2E90750AE
:102C600042F8103F054800234FF43251FEF766FD4D
:102C7000BD46B0BDBAF700000500000134EC00000D
:102C800038B51F480AF064FE0446002837D0017E9C
:102C9000012930D1038A012B04D81A4A1A4809F0B5
:102CA000DFFD1DE002210C300AF095FE03780E3B9B
:102CB000012B05460ED8154A1549164840F6F9234A
:102CC00009F0ABF8002383F31188BFF36F8F032360
:102CD000184602DF104A28780323214609F0C2FD76
:102CE000204605F097F80D4BD3F80C313BB1BDE809
:102CF0003840FFF759BF0B46094A0121CEE738BDDE
:102D00000C010020DCF7000034EC0000F8F70000B4
:102D10002CF800005AF8000088EE000000000020A7
:102D200077F8000010B5012104460C300AF053FE7C
:102D30002146034A0078BDE81040002309F092BD07
:102D4000A0EE00002DE9F74FDFF850A1BFF35B8F35
:102D500081460F46904600235AE8004F4AE8003269
:102D6000002AF9D1BFF35B8F264644B94C4A4D483F
:102D70004B46012103B0BDE8F04F09F071BD20467C
:102D800004F09AFF484D4FF00C0B0BFB00504388AA
:102D90004B451FD0204604F08FFF0BFB00504388AB
:102DA000424A00933F484B46012109F04DFCBFF3D6
:102DB0005B8F5AE8003F4AE80062002AF9D1BFF36E
:102DC0005B8F002B66D01E46304603B0BDE8F04F47
:102DD00005F020B8A04510D020460AF099FD04F176
:102DE0000C090121217648460AF0DAFDB8F81020D6
:102DF000D8F80C1048460AF0DDFD204604F05CFFD0
:102E00004FF00C0808FB00504368EBB1E7B92046CF
:102E100004F052FF08FB005001224068D0E9003165
:102E2000007A01F01F0C02FA0CF2490928B3BFF333
:102E30005B8F03EB810353E8000F104343E800016D
:102E40000029F8D1BFF35B8F204604F035FF4FF027
:102E50000C0808FB00508368002BB5D0204604F016
:102E60002BFF08FB00F02F54204604F025FF08FB41
:102E70000055A86807F0BAFAA6E7D24303EB81032E
:102E8000BFF35B8F53E8000F104043E800010029B7
:102E9000D8D0F7E703B0BDE8F08F00BF08010020ED
:102EA0008BF8000034EC0000B80D0020B3F80000EF
:102EB00038B5042104460C300AF08DFD03464088E5
:102EC0005D7818B119782246FFF73CFF25B1034819
:102ED000BDE8384007F08ABA38BD00BFF0000020D6
:102EE00070B5032104460C300AF075FD0578B0F882
:102EF0000100E36840F6354290421B7806D1BDE8F8
:102F00007040084A0848022109F0AABC18B12246BC
:102F10001946FFF717FF25B10448BDE8704007F0D8
:102F200065BA70BDE6F8000034EC0000F000002047
:102F300010B5C1E900239DF808300B720C4604F06F
:102F4000BBFE034B0C2202FB00335C6010BD00BFD4
:102F5000B80D00202DE9F0474FF0FF3206464FF044
:102F6000FF33184888460AF0D8FC044638B300F10D
:102F70000C0701214FF0000938460AF011FD84F8D2
:102F80001890204604F098FE0F4D4FF00C0A0AFBF3
:102F900000504680204604F08FFE0AFB0050C0F827
:102FA0000890204604F088FE0AFB005503213846AD
:102FB000C5F804900AF0F8FC068080F802802046EC
:102FC000BDE8F087A0030020B80D00202DE9F041F6
:102FD000074688B016460C4621B9FFF7BBFF0446EA
:102FE000002854D002AD0122002128460BF057F8EA
:102FF000204604F061FEDFF8A4800C2303FB008070
:10300000856020460AF0BCFC014625480AF0B6FC63
:103010004FF4A0222846002307F00CFA054698B189
:1030200040F24D131F4A2049204808F0F6FE204880
:103030002A46394608F0F1FE002383F31188BFF3D6
:103040006F8F0323184602DF204604F035FE0C2361
:10305000584318F8005095B1164A174800953B465A
:103060000221093D09F0F0FAEDB2204604F0D2FE4B
:10307000092D0FD8114B585708B0BDE8F08116B193
:1030800034600020F8E7204604F0C4FEF9E76FF052
:103090006800F1E76FF00400EEE700BFB80D002014
:1030A00014010020F8F700001CF900005AF8000095
:1030B00025F9000051F9000034EC0000C5FB0000C8
:1030C0002DE9F0418F4D82B0D5F82C31996811F07F
:1030D000010100AF21D13A1D40F60340FFF776FF12
:1030E000044600286FD17868C3681B789BB9BFF38A
:1030F0005B8FD5F8D430BFF35B8F05F1D40203F0BA
:103100000903BFF35B8F52E8001F42E80034002C34
:10311000F9D1BFF35B8F04F07DFE3A1D002141F22F
:103120000300FFF753FF044600284CD17B68764E1E
:10313000DA68D2F80100D2F8051003C6184604F088
:1031400069FE21463A1D41F20100FFF73FFF0446A8
:10315000002838D17868C3685A7885F870205A8872
:10316000A5F872201A7985F87120B3F80720A5F820
:103170007420B3F80530A5F8763004F04BFE2146F4
:103180003A1D41F20200FFF721FF0446D8B9D7F8F3
:1031900004C0DCF80C20531C4132186859683446CE
:1031A00003C4083393422646F7D1604604F032FE4A
:1031B00095F87C3058060BD4544A5548012109F043
:1031C00030FA6FF0120420460837BD46BDE8F081A2
:1031D0003A1D002142F20300FFF7F8FE04460028E2
:1031E000F1D17A684B4BD168D1F80100D1F80510C4
:1031F00003C3104604F00EFE1F23A5F8E83095F82F
:103200007C30990617D4022140F66D40FFF7A2FEEC
:10321000064600284AD002210C300AF0C5FB0123E3
:10322000447003702246314640F66D40FFF7CEFEF3
:1032300004460028C7D195F89C301A0712D53A1DCC
:10324000002142F21C00FFF7C1FE04460028BAD15B
:103250007868C368D3F80120D3F80530C5E938236E
:1032600004F0D8FD082142F20100FFF773FE044686
:10327000E0B108210C300AF097FB0226002206700C
:1032800042708270C270027142718271C2712146B5
:1032900042F20100FFF79AFE0446002893D108216C
:1032A00040F60140FFF756FE804610B96FF0680403
:1032B00089E708210C300AF077FB80234370202334
:1032C00004708470047144718471C670C3712246A5
:1032D000414640F60140FFF779FE044600287FF49E
:1032E00072AF01463A1D4FF60140FFF76FFEA8B1DD
:1032F000094A0748022109F094F900F0C7FD044685
:1033000061E700BF000000207800002075F9000090
:1033100034EC0000D800002099F900007B68DC68DC
:10332000B4F80130032B96BF444A454952F82310A4
:103330006E468AB06A464348D3614FF400731384E3
:10334000414BC2E9050142F8103F00233F484FF4CA
:103350001351FEF7F3F9B4F80120B4F80330022A50
:10336000B5464BD1052B49D8394A52F823106E4641
:103370008AB06A463748D3614FF400731384324BE6
:10338000C2E9050142F8103F4FF413512F480023C2
:10339000FEF7D4F9637994F806C0D4F80900032B3A
:1033A000B54698BF2C4AB4F8076094BF52F8231072
:1033B00023496C468CB06A46DFF8A0E0C2E9073CBE
:1033C0004FF400739385264BC2E905E1C2E9096019
:1033D00042F8103F00234FF473511C48FEF7AEF93A
:1033E000A546786804F016FD3A1D00214FF602400C
:1033F000FFF7ECFD044618B11A4A7AE71049B6E720
:103400007868C368B3F80130A5F8C13004F002FD54
:1034100095F8C1305B077FF570AF3A1D21464FF636
:103420000340FFF7D3FD08B10F4A62E77868C3682D
:103430005B7885F8C03004F0EDFC5EE768EE0000D4
:103440006DF90000BDF900000400000134EC00003B
:1034500050EE0000D6F9000040EE0000EEF900004A
:10346000070000011BFA000044FA0000F7B5144BF6
:1034700093F99B30002B05460C461DDA14B9204603
:1034800003B0F0BD082C01AA4FF0000142F2180071
:10349000264628BF0826FFF799FD0028F0D1019F96
:1034A000F9683246013128460BF04BFA384604F0F1
:1034B000B1FC3544A41BE1E76FF08500E0E700BFF5
:1034C0000000002070B50C4D06460FCD8EB06C4646
:1034D0000FC40FCD0FC40FCD0FC495E803000D2E00
:1034E00084E803009BBF0EAB03EB8606034856F847
:1034F000380C0EB070BD00BFD4EC00006DF90000B8
:10350000024BD3F82C315B69184700BF0000002044
:1035100070B5414D414EEB686FF39433EB603E481C
:103520004FF0FF324FF0FF33012107F015FF70B16C
:103530003B4A3C493C4840F6763308F06EFC002399
:1035400083F31188BFF36F8F0323184602DFEB6804
:10355000C3F38633022B06D9042B07D0334A3448F1
:10356000022109F07DF907F0B5FBD4E72B7B002B96
:10357000F9D13048002200230AF0D3F9044600288C
:103580003BD04FF0FF332C484FF0FF3206F052FF94
:10359000D6F8083123BB20460AF0F2F9C6F8080134
:1035A0002046FFF7ADFF03460028DCD0234A204821
:1035B000012109F055F9204806F018FF204604F0D3
:1035C0007BFB1F4B0C2202FB0033588818B92046A6
:1035D00004F020FCC7E722461F21FFF7B3FBF6E704
:1035E000184A1348012109F01CF8D6F8080104F024
:1035F00011FC0023C6F80831CDE7094A12490A48F0
:1036000040F6083308F009FC84F31188BFF36F8F8C
:103610000323184602DFB4E7500100200000002019
:10362000F8F700001CF900005AF800008FFA0000BB
:1036300034EC000014010020F00000206DFA0000BE
:10364000B80D0020B0FA0000090601002DE9F04194
:10365000044600F10C0630460AF0C5F9278A012F0E
:1036600005460AD81E4A1F483B46012109F0F8F8D2
:103670002046BDE8F04104F0CDBB304602210AF0FF
:10368000AAF90378052B064623D00E3B012B23D93C
:10369000154A1649164840F6547308F0BEFB00233D
:1036A00083F31188BFF36F8F0323184602DF4FF0B7
:1036B0000208104A30780223214609F0D3F818F0A6
:1036C000020FD5D06369278213FA85F5E560BDE85E
:1036D000F0814FF00308ECE74FF00108E9E700BF85
:1036E000DCF7000034EC0000F8F70000CBFA000033
:1036F0005AF8000078EE000010B5044607F0AEFA64
:10370000237E012B21D1E3681B78052B0AD00E3BC9
:10371000012B0AD82046FFF799FF002407F0B2FAE0
:10372000204610BD2046FFF791FF0D4821460AF0C4
:10373000FAF80C490C480AF047FD031EEDDA0B4A73
:103740000B48012109F08CF8E7E70A4A08480121F3
:1037500009F086F8204604F05DFB6FF01504DDE704
:103760000C010020640100203809002079F70000D6
:1037700034EC0000E4FA0000084A0346D2F82C01B9
:1037800030B9D96839B1596929B1C2F82C317047BB
:103790006FF0770070476FF0150070470000002051
:1037A0002DE9F84F454BBFF35B8F00AF53E8002F77
:1037B00042F0040243E800210029F7D1BFF35B8FF8
:1037C000A3F1D40413F8CD2C3D4D3E4B2046012AE5
:1037D00088BF1D466E46FFF747F98AB06A463A4BE6
:1037E000D061C2E90535394B1362394B42F8103FBD
:1037F0003848DFF8E480DFF8E490DFF8D8A0002351
:103800004FF42351FDF79AFF0125B5462646E3798B
:103810009D4206F107063ADB94F870502846FFF700
:1038200051FE6E468CB0B4F87210B4F876306A4629
:10383000DFF8ACC05362C2E907512A4B4FF4007560
:10384000C2E905C0158542F8103F00234FF45351DB
:103850002048FDF773FFB54694F871603046FFF7D6
:1038600031FE8AB0B4F874306A461F499584C2E9C3
:1038700007631E4BC2E9051042F8103F15480023AC
:103880004FF43351FDF75AFFBD46BDE8F88F30467F
:10389000FFF7EAF8EB468AB06A4640F20133C2E924
:1038A0000585D061138442F8109F00234FF4135113
:1038B0005046FDF743FF0135DD46A8E7D400002060
:1038C000DAF10000F8FA0000FCFA0000000201033F
:1038D0000400000234EC00000BFB000004000001B7
:1038E0001CFB0000060000015AFB0000050000015F
:1038F00010B5FFF7E5FB044608B9FFF751FF044B8D
:103900001B681BB12046BDE81040184710BD00BF22
:10391000D00D002070B53E4DD5F82C3188B006464C
:103920004BB93C4A3C48012108F07BFE6FF0120481
:10393000204608B070BD05F1D403BFF35B8F53E898
:10394000002F22F0020243E800210029F7D1BFF343
:103950005B8FBFF35B8F53E8004F44F0010243E8F5
:1039600000210029F7D1BFF35B8F14F001044CD183
:103970002A4B1E600122114605F1F0000AF08FFB70
:1039800005F58A700AF04BFB00220023CDE90623DF
:103990006FF00803CDE90243CDE90044204B2149F3
:1039A00004944FF44072204806F066FF1F491E48F9
:1039B0000AF045FC1E480AF017FC1E491C480094FA
:1039C0006FF007034FF4966206F098FE1A49184804
:1039D0000AF035FCD5F82C31DB689847044630B145
:1039E0000346164A0C48012108F03AFFA0E73EB909
:1039F000FFF766FB044600289AD1FFF7D1FE97E750
:103A000005F1C40006F074FE92E76FF077048FE7CB
:103A10000000002081FB000034EC0000D00D0020ED
:103A20001135000080210020B80800209AFB00001A
:103A300038090020C0240020A0FB0000A9FB0000E2
:103A4000044BBFF35B8F1868BFF35B8FC0F380003C
:103A5000704700BFD400002000487047BFF000004E
:103A6000F8B50A4DEF7906460024E3B29F4202D82A
:103A70006FF0010007E02946304608F038FF0735AF
:103A8000631C08B12046F8BD1C46EEE7000000208C
:103A900070B5194E0622314605460AF0DFFE30B3F6
:103AA000062142F20500FFF755FA044608B3062244
:103AB00029460C3009F07EFF2146002242F2050023
:103AC000FFF784FA044648B110F10D0F04D10B4AF8
:103AD0000B48022108F013FF204670BD33462A68C8
:103AE00043F86929AA88B280012283F8682000245B
:103AF000F2E76FF06804EFE769000020D2FC0000F5
:103B00003CEC000037B504460D4689B118492846FB
:103B100008F0EDFE60B9174A2968C4EBC404A31885
:103B20001151AA889A80AA799A71002003B030BDF9
:103B3000684608F087FE0028F8D16846FFF790FF36
:103B40000028F5DA0B4A00989DF80610C4EBC4046F
:103B5000A3181051BDF8040098809971002DE4D08D
:103B600012592A609A88AA809B79AB71DDE700BF61
:103B700009F700000000002038B50D460649CC7951
:103B800038B12B689C4228BF1C46C4EBC4020AF023
:103B9000D8FE2C6038BD00BF0000002070B5044680
:103BA000B1B9C0B1204908F0A2FEA0B92046FFF784
:103BB00057FF002831DA2378012B04D1A37903F0D1
:103BC000C003C02B07D0194A1948012108F097FEFD
:103BD0006FF0150070BD174DEB79012B20D0BFF3AE
:103BE0005B8FD5F8D430BFF35B8FDB0707D4002C95
:103BF000EED00D49204608F07AFE0028E8D1EE7993
:103C00002146731C3046EB71FFF77CFF08B9304644
:103C1000E0E7EB79013BEB71DCE76FF07700D9E788
:103C20006FF00B00D6E700BF09F70000E1FC0000D1
:103C30003CEC0000000000202DE9F341044640B9AF
:103C40001A4A1B48022108F05AFE002002B0BDE8C3
:103C5000F08101AA002141F20900FFF7B7F90546FA
:103C600008B1144AEDE7019E1349D6F80C8008F11B
:103C70000107062238460AF0F1FD28B10F49062255
:103C800038460AF0EBFD18B9304604F0C3F8DCE71B
:103C9000D8F80130C4F80130BB88A4F805303046AC
:103CA000257004F0B7F80120D0E700BF0FFD000039
:103CB0003CEC000028FD000016F7000010F70000A3
:103CC00007B56846FFF7B8FF044BD87118B16946CD
:103CD0000020FFF717FF03B05DF804FB0000002091
:103CE000F0B5304DEC7989B0002C53D195F8C26015
:103CF00016F0010610D12C4A2C48022108F0FFFDD5
:103D0000EC71162600240127EB79E0B298422CD3FF
:103D1000002B3FD000203BE06A4621464FF6094089
:103D2000FFF754F908B1224AE6E7DDF800C0DCF8F5
:103D30000C104B7823B9604604F06CF81D4ADBE7A1
:103D40008B1C02AA01F1120418685968174603C7B0
:103D50000833A3423A46F7D1186838609B88BB8085
:103D6000604604F057F83446CAE708AB06FB003358
:103D7000694653F8182C33F8143CCDF80120ADF8FF
:103D800005308DF80070FFF7BDFE01340028BBD070
:103D900009B0F0BD0021084609B0BDE8F040FFF7CA
:103DA000FDBE00BF0000002046FD00003CEC00000E
:103DB00072FD000092FD00002DE9F04190460E4694
:103DC0001D46024650B14BB13103047810D573073C
:103DD00008D52B4A2B48012108F091FD6FF0150002
:103DE000BDE8F08108F095FD0028F9D1012341E0FC
:103DF000F70730D5244FB8F1000F13D0B0060AD41E
:103E0000C4EBC403FB5C012B13D02B70B20620D58E
:103E100043F002030BE097F8D8305906F0D46FF066
:103E20008500DDE7C4EBC403FB5C012B01D02B70E4
:103E30000FE0072101FB04710131104608F061FD1C
:103E40000028CDD1C4EBC4043B5D2B70B8F1000F4A
:103E5000DCD10020C4E773070ED50B4EC4EBC407BA
:103E6000F35D012BE3D1072111FB0431314408F04C
:103E700048FDF35D2B70B3E708F04BFDB6E700BFDC
:103E8000BBFD00003CEC00000000002038B5104DE8
:103E9000EB7913B10024204638BDFFF711FF04462B
:103EA00028B10C4A0C48012108F029FDF3E7EB7911
:103EB000002BEFD1FFF714FF04460028F1D1681C56
:103EC000FFF7E6FD04460028E5D0044AEAE700BF14
:103ED00000000020DAFD00003CEC0000F9FD0000CD
:103EE0002DE9F74F0C46202100909246FFF732F85B
:103EF0000546002855D020210C3009F055FD202220
:103F0000002181460AF02BFD09F1010B04EBCA0ADE
:103F10000026D4F800800023626893420CD3083452
:103F2000A245F6D1009889F800600022294603B026
:103F3000BDE8F04FFFF74AB898F8012098F800C0A4
:103F4000B01C81181F2915D9BCF1090FC0F11F023F
:103F500001D1002A0CDC144A1448012108F061FB4D
:103F6000284603F057FF6FF0150003B0BDE8F08F4F
:103F70004FF0080CD7B2791C0BF80610711CC9B2AF
:103F80005BFA80F00BF801C0D8F8041001930237F7
:103F90000AF0D7FC019B3744FEB2013308F1080850
:103FA000BAE76FF06800E0E71CFE00000CEC0000D0
:103FB000F8B545686905064635D4046914B115F0AD
:103FC000010330D0194F3078FB7983422BD9C0EBF5
:103FD000C0001749072238440AF040FCA8B115F088
:103FE000010306D197F87020082A02D8B2689F2AE8
:103FF00019D915F0300F09D0ACB1EA060AD405F48E
:104000006035B5F5603018BF0120F8BDEB0601D46E
:10401000002CF4D1D6E902239A4204D81F2A02D9EF
:10402000B3F5804FEBD90020EFE700BF0000002080
:1040300009F700002DE9F04FD1F810A08BB0BAF1CC
:10404000000506468048059318BF012508F08BFC43
:1040500040070C46934640F1EC800846FFF7A8FF66
:1040600028B96FF0150528460BB0BDE8F08F204643
:1040700008F066FC81460028F3D006F1100840469F
:1040800008F071FC0106C0F3C01300F1D580CDE942
:104090000733CDF82330A3686068ADF81830E368C3
:1040A000ADF81A3008F050FC6FF400518DF825007F
:1040B000654808F05EFC654A2378337082F86F30FB
:1040C00061682A460DF11D033046FFF775FE05466F
:1040D0000028C8D106F10903BAF1000F18D02269EF
:1040E0001168C6F809109188998092799A712046D2
:1040F00008F0DCFC6368DA0707461BD4980503D494
:10410000149B0BB9022F4ED102238DF81C3023E0F3
:104110004F4A1168C6F809109188927999809A716E
:10412000204608F0C3FC6368DD070746E6D58DF836
:104130001CA011E013F0100F0CBF012304238DF815
:104140001C3023691A68CDF81E209A88ADF8222009
:104150009B798DF82430A9460F2142F20600FEF724
:10416000F9FE054600286AD00F2206A90C3009F096
:1041700021FC2946002242F20600FEF727FF0546F1
:1041800000287FF470AFBAF1000F12D03046012141
:1041900008F09CFC064620B32E4A2F48012108F067
:1041A00040FA35465FE70323DDF850908DF81C3068
:1041B000D2E7159B0093CDE90197149B059A5946C8
:1041C000304608F0FCFB00283CD13046012108F0C5
:1041D0007DFC06460028DFD1666886F00206C6F33D
:1041E000400606F0010240460E2108F0D1FB7B1E7E
:1041F0005A425A414046082108F0CAFBB91E4A42B9
:104200004A414046092108F0C3FB6268404602F07B
:1042100001020A2108F0BCFB4A4640460B2108F087
:10422000B7FB62680D21C2F38002404608F0B0FB84
:1042300019E76FF00A0516E76FF0770513E76FF0DF
:10424000680510E705460EE7D400002000000020B6
:1042500009F7000035FE00000CEC000073B51546B0
:10426000069A0C46CDE900322B460A460146114813
:10427000FFF7E0FE21460646002340F201109D4272
:1042800002D1304602B070BD0A88824204D14A6829
:1042900012B11278D20702D401330831EFE7064990
:1042A000064809F0A7FF4FF470220023034806F0E8
:1042B00091FAE6E718000020F942000030000020E3
:1042C00008B50B4808F027FC0A486FF4804108F055
:1042D00050FB084808F047FB03461B06C0F3C0101C
:1042E00005D5BDE808400248002108F0EFBB08BD35
:1042F000180000202800002010B5FFF7E1FF03465A
:1043000030B1044A0448BDE81040022108F092B9D7
:1043100010BD00BF50FE00000CEC00002DE9F8437A
:104320000F4FDFF840804FF00C0944463E46002511
:10433000221D21463046013508F045FC042DA6F12A
:104340000806A4F10C04F3D1A9F1040919F1040F32
:10435000A7F12007A8F13008E7D1BDE8F88300BF36
:104360004C0E0020080F002070B505460C461E4676
:10437000B2B173783078C01A10F0030030D1013335
:10438000DBB233703022042312FB04320C2313FB04
:1043900005231C4A70681A44314608F017FC24E0D3
:1043A00009F0A0FA0028E4D02146284603F08EFB4D
:1043B000727813460028DDD030210C20614300FBC9
:1043C000051110480144887AC97A8842D2D13378DD
:1043D0009B1A9B0711D1D6E902039847002070BDB4
:1043E0000128FCD00133DBB23370074B0122214698
:1043F00028461A5503F08CFBF0E70232D2B2327035
:10440000E9E700BF540E0020071A00202DE9F04F05
:10441000DFF82CA11AF8003087B00546002B00F019
:104420008780484C00EB4003002704EB03143C2238
:10443000042312FB00330AF800704FF003080097C2
:104440000293A3460023A16A5BF8240F059305AAF3
:1044500008F0C3FB0646002E40D0059A92F8009063
:104460005378A9EB030909F00309B9F1010F05D14C
:10447000013B5370059BD3E902029047059BA06A5C
:104480001A780393D1B201915978521A02F00302BB
:10449000012A16D00022594608F0A7FB039B5E6054
:1044A000019A59785A701A78521A02F00302012AB6
:1044B00007D1244A5970029930460A44194608F037
:1044C00085FBD4E9090105AA08F087FBB9F1010FC2
:1044D0000646C0D1B8F1000F23D110BB94F82E309E
:1044E00094F82F209A4226D194F82C3094F82D205D
:1044F00008F1FF389A425FFA88F81CBF84F82D3023
:104500000127B8F1FF0FA4F10C049AD1009B7BB1F5
:1045100077B93A462946284607B0BDE8F04F03F080
:10452000B1BA0123294628460AF8053003F0F0FA0B
:1045300007B0BDE8F08F84F82F3001230093D3E754
:10454000071A0020540E0020D0E908310B44084916
:1045500002460848194481429FBFA3F1E873A3F5BE
:10456000D433A3F5A573012088BF002053627047A0
:104570005A2B17FF592B177F2DE9F843224E04467B
:1045800008462C2104FB0168D8F8041001EBC00791
:1045900011F83010FC78651CEDB2A94298BF0025D7
:1045A0007978A9422ED0796804EB44044FEA041CC0
:1045B00001EB04144FF0040901F80C906360089BB0
:1045C000A360099BE3600A9B23610C9BA361BDF878
:1045D0002C30A382119B63620D9BE3610E9B2362CF
:1045E0000223A3700F9BA362109B6270E362FD70B5
:1045F000D8E908359847434600224946A847A0789D
:10460000BDE8F8830120FBE7140F00202DE9F04FEF
:10461000837E8FB00446002B40F05482437E029389
:104620004BB1456A0346012204210420AC460FB079
:10463000BDE8F04F60474369C17A0893837A01224D
:10464000994242765CD01344DBB2022B08BF0023B0
:10465000837200EB83030792DB6800930099089B49
:104660000B4423F07F434361237E049302F0F6FE64
:104670002368667A0393636809930023013E0693D7
:10468000FF230590F6B20193FF2E3DD1237E049ABD
:104690009B1A18BF01230393079B002B00F0E482B1
:1046A000059B089ADDF800800B969B1A23F07F4B40
:1046B000236805934FF00009277EFF2F0DD007EBED
:1046C00047052B010A93059B03EB0515AA68424594
:1046D00040F22A81A2EB0802AA60039A0799049883
:1046E000237E834218BF0A4601990392204608F0B0
:1046F000F0FA25680022237EFF2198460191C4E14B
:10470000029B07930093AFE7099B03EBC609D9F817
:1047100004A099F8030099F80280804500F0D28047
:1047200099F8002008F1010308EB4807DBB29A4230
:1047300008BF00234FEA071B89F802301AF80B2044
:104740000AEB0717042A7978E5D901EB41052B011B
:104750000A93039B03EB0515082A6B78A878A3EB53
:104760000003DBB203D83BB9062A00F081800121A7
:10477000384608F0A4FACCE7052A6FD17A684AB91E
:10478000BA683AB9FA682AB93A691AB97A6932F054
:104790007F42ECD0012B40F08B80204608F045FA98
:1047A000A860D4F814B0059B009AA3EB0B0323F088
:1047B0007F43134498429DBF6A699B18181AA0EB67
:1047C00003086B689CBF68614FF0000893B1BB8A17
:1047D00083B1013BBB826968DFF84CE2E88BBB8A9E
:1047E000414501D2984270D8EB8BBA8A9342C0F00F
:1047F0008480AA837B68A96A4344AB60BA686B690A
:1048000013446B6129B10B681BB1D7E901329B1AC4
:104810004B60059A5946284608F033FAFA68AB69A6
:104820001344AB613A6993428CBF9B1A0023AB617E
:10483000BA7D1AB1EB7862F30003EB70FB7D13B124
:10484000013B85F82C30039A0A99019B53547B78DD
:1048500001936B7801336B70002189E7012B25D11F
:10486000062A05D0204608F0E0F9AB78A8606B7006
:10487000E27E7B789A42EFD11AF80B30062B1CBFF0
:10488000FF23E3761AF80B30062B01D0082B40D11A
:1048900079686369CA1A10023DD4009B22F07F42F6
:1048A000D318E2699A4288BFE361D5E7062ADFD0D0
:1048B00004212346656A01220846A847012389F896
:1048C00002800693013EF6B2DEE66B6A574ADFF8D5
:1048D00060C19A18624584BF73446B62D5E90823AE
:1048E0008CBF4FF0010C4FF0000C9B1A8C44013828
:1048F0006B62A8EB0C08E88370E72846CDE90B1340
:10490000FFF722FE0B990C9B084401338044EB8394
:104910006AE70599BDE7009A5B1A23F07F439A4244
:104920008CBFD31A0023BCE7A9786B78E88B5B1A9D
:10493000E1698A42A8EB0208ABEB020B914425BF68
:104940000B9AE2768A1A0022E261A96AAE69DBB2AA
:1049500000293DD00A68002A30D0002E30D1022B29
:1049600001D100283DD00022AA600A99059A525C24
:104970002276696829B9AA6A002A6BD0127A012ABC
:1049800068D1AB6A002B2ED01B7A012B2BD1AB78D0
:10499000C5F808806B70089B616903EB090222F07F
:1049A0007F42284608F06DF9059A0A99019B5354F5
:1049B0006B7801970133DBB26B707DE6002ED2D0AD
:1049C000022BD0D10028CED10A7A012A06D1CAE71B
:1049D000002EC8D0022BC6D10028C4D1E776E661EC
:1049E000C1E70426F0E7EB8B0993C3B9B5F81CA027
:1049F000524600262846CDE90C21FFF7A5FD0D996A
:104A00000C9A0844013A0644F4D295F82C00D8B127
:104A10000020099BAE6053441844E883BBE7AB78A1
:104A20006B7000229246E4E74AA9D1015A2B17FF86
:104A3000592B177F2846CDE90C12FFF785FD0C99FD
:104A40000D9A084406441046B34500F10102F1D81E
:104A500080B2DEE73BB1012B00D020B12B6A13B14D
:104A6000696A01209847AB78A6E708EB48064FEA49
:104A7000061B05EB061615F80B10B76A17B1387A46
:104A8000012822D0CDF804808846B8F1FF0FECD180
:104A9000002A00F0ED80069B002B00F0CB80237EE7
:104AA000FF2B40F05B8102F0B3FC0546002840F08C
:104AB000BA81E06102F0D2FC65766061A37E002BD2
:104AC00040F0AC810FB0BDE8F08FE369009AD6F8F2
:104AD00018909A4238BFA3EB020CD7E900A328BF75
:104AE0004FF0000C534530D2B9F1000FAAEB030A86
:104AF00008BF4FF004090023AAEB09001A469E469E
:104B00000890FF2904D002EB09008245059032D2BB
:104B10007A68B168521A1A447A60B36015F80B20AB
:104B2000FF23FF2A67D002EB42014FEA011E05EB8B
:104B30000111D6F808C08868844559D9ACEB00004B
:104B4000B060134615F80E20EBE7B9F1000F10D155
:104B5000BAF1000F0DD1A44AA449A54840F6A1130B
:104B600007F05BF98AF31188BFF36F8F03231846B0
:104B700002DF0023CCE701EB4101080105EB011145
:104B8000079088688644886A10B1007A012803D0AB
:104B9000886908B1496811B90799695CB1E7B369D7
:104BA0000593BEF1040F1AD9131F7344534528BF50
:104BB000534602EB09018B4211D90599002900F0F7
:104BC0003781B3EB090301D09C45A1D97244131876
:104BD0009C46089B07994FF0000E695C91E7059988
:104BE000724483180029F3D19C46F3E763468FE7AC
:104BF000A0EB0C008860FF2B15D0019A15F80B1064
:104C0000FF2A17BFBDF90420217602EB42021201F0
:104C10001BB203EB430318BFA9541B01EA5C05F860
:104C20000B2005F80380F38B013BF38302233B72D7
:104C3000012260E50123039363680893637A013BD3
:104C40005FFA83FBBBF1FF0F1AD0089B03EBCB0984
:104C5000D9F80430009399F8015099F80330AB4229
:104C600015D10BF1FF33EBE70199204608F031F83D
:104C7000237E049A93427FF40EAF069B002BDBD079
:104C8000039B002B7FF40BAF039B637616E705EBCA
:104C90004505009A2B0102EB0515D35C012B23D0AF
:104CA000022B29D16B682A690193D5E90213079277
:104CB000019A0593127805986B690693FF2AAB69F0
:104CC000D4F800A0D0F80080666902D00868B0422D
:104CD0001ED0277E0E604FF00008FF2F1ED1019BD3
:104CE0001F70059BC3F800804FF00003AB70AB6AE8
:104CF00013B1E96A0020984799F8013099F800202B
:104D00000133DBB29A4208BF002389F80130A2E7E1
:104D100002EB420212011AF80270DEE707EB4706C7
:104D2000320109920AEB0616069AB16962B1B268BD
:104D3000DDF818C00A9342443846E0470A9B28B978
:104D4000B2689044099AE6E70029F9D0079AB36857
:104D500012B10799726A0A609844C0E7049BFF2B5E
:104D600006D102F07BFB054602F044FB00B9656109
:104D7000237E226803EB430302EB03129568002DA8
:104D80004BD002F06BFBDFF86C90DFF864A080463C
:104D90000A276169A8EB010222F07F42954207F1E0
:104DA000FF3742D90332AA422CBF01EB020B01EBC1
:104DB000050B2BF07F4BA26A5846904702F04EFB42
:104DC000A0EB080222F07F42ABEB080B03322BF082
:104DD0007F4B5A4506460FD800236376A37E029A7E
:104DE0001A433FF46FAE19E076FE0000B5FE0000F6
:104DF0005AF80000970101006FB9134A40F6F633E4
:104E00004946504607F009F887F31188BFF36F8FC2
:104E10000323184602DFB046BBE76576656A234682
:104E20000122032101E400232FE701230293D3E7AA
:104E3000BCF1000F04D0A3EB09039C457FF6D6AE6E
:104E400072441318D0E600BF76FE0000F8B5089F44
:104E50001C46069B10B101263046F8BD134D9DF847
:104E60001C6029722A606C726B60013CE4B2FF2CFA
:104E70000FD1002EEFD1099B2B620A9B6B620B9B1B
:104E8000AB622C7602F0EAFA6E816861EC76EE6134
:104E9000E2E703EBC402576013F8341001EB410260
:104EA00007EB0217721AD6B2DFE700BF140F00201B
:104EB00010B4074B2C2202FB00314C6A34B10B4674
:104EC000A446012210BC03210220604710BC704799
:104ED000140F00202DE9F041224E04469C462C235D
:104EE00004FB03680846D8F8043003EBC00713F846
:104EF0003030FC78651CEDB2AB4298BF00257B7862
:104F0000AB4211462CD07A6804EB440423014FF0E5
:104F1000050E02EB041402F803E0069BA360079B56
:104F2000E360089B2361BDF82430A3829DF82830FC
:104F3000A3759DF83430E3750223A3700B9BA36225
:104F40000C9B6170C4F804C0E362FD70D8E90835B9
:104F50009847434600220421A847A078BDE8F08185
:104F60000120FBE7140F00202DE9F0411A4E044602
:104F70009C462C2304FB03680846D8F8043003EB56
:104F8000C00713F83030FC78651CEDB2AB4298BF17
:104F900000257B78AB4211461BD07A6804EB4404B1
:104FA00023014FF0070E02EB041402F803E0022382
:104FB000A370069B6170C4F828C0E362FD70D8E955
:104FC00008359847434600220421A847A078BDE849
:104FD000F0810120FBE700BF140F002038B5054623
:104FE00000200C4608F0E2F968B955B1074B24B12E
:104FF00022681A60A2889A8001E01C609C800020D0
:1050000038BD034BF3E70C20FAE700BF0B1A002072
:10501000111A00200128024605D8044B0448002A32
:1050200018BF184670470020704700BF0B1A0020B9
:10503000111A002010B5044608F0BDFA70B1134AE9
:105040001349144840F62B1306F0E7FE002383F3C0
:105050001188BFF36F8F0323184602DF08F00BFBA4
:1050600070B10A4A0A490B484FF4136306F0D5FEA3
:10507000002383F31188BFF36F8F0323184602DFE9
:105080002046BDE8104005F0B1B900BF0BFF00009D
:1050900046FF00005AF800000860014805F0A6B974
:1050A000BC12002013B500230360064B044601AA7E
:1050B000D3E9000107F091FD08B1019B23600020B6
:1050C00002B010BD640F0020014907F051BD00BFC0
:1050D000780F002013B51C4900234868019301AAEA
:1050E00007F083FD044668B9184A1949194840F287
:1050F0000E4306F092FE84F31188BFF36F8F0323F3
:10510000184602DF2046FFF7DFFF019B1C797CB9C0
:105110000E4A11490F484FF4A86306F07EFE84F34F
:105120001188BFF36F8F0323184602DF02B010BD52
:10513000064A0A49074840F2445306F06EFE00232F
:1051400083F31188EDE700BF640F00200BFF000020
:105150004BFF00005AF8000050FF0000FF0501005F
:105160002DE9F843DFF86090184FC84638F8045B23
:10517000FF2D28BFFF25EDB26DB17C7D3B7D013455
:10518000E4B2052C08BF00249C4204D0404607F03E
:10519000DEFC064608B9BDE8F8830D4807F0D7FCE9
:1051A00020B93046BDE8F843FFF78EBF06607B7D2F
:1051B00047F82300B9F800307C75013B013DA9F8A0
:1051C0000030EDB2D8E700BF740F00200C110020B2
:1051D000B40F0020014907F0CBBC00BFB40F002082
:1051E0002DE9F047234E0468234F054624B92C606F
:1051F000BDE8F047FFF7B4BF94F80480D4F80090FE
:10520000B8F1000F26D11D491D4840F2FE53324629
:1052100006F003FE88F31188BFF36F8F4FF0030A87
:10522000504602DF3B8853450CD91649144840F2DA
:105230008C63324606F0F1FD88F31188BFF36F8F5F
:10524000504602DF3B88204601333B80FFF7C2FF18
:105250004C46CBE70C490A484FF4D063324606F07F
:10526000DCFD002383F31188BFF36F8F03231846FF
:1052700002DFEDE70BFF0000740F002072FF00005B
:105280005AF8000099FF0000FF050100022810B540
:105290000C4602D00B68022B07D004484FF0FF32B7
:1052A0004FF0FF3305F0C6F8206810BDBC12002097
:1052B000024B1A6802B9186018687047600F002026
:1052C000054A0346106830B183424FF0000301D114
:1052D0001360704718467047600F0020014B186834
:1052E000704700BF600F002030B505682B7887B08D
:1052F00004461BB96FF0770007B030BD01220021D2
:10530000684608F0CCFE124BC5F818D06B612B78BC
:10531000002BEFD00F4B0022114603209C60FFF7BB
:1053200023F870B10C4A0D490D4840F2BD7306F0E8
:1053300074FD002383F31188BFF36F8F0323184696
:1053400002DF4FF400420023684605F073F8D3E70C
:105350004BD20000940100200BFF0000D1FF0000A1
:105360005AF8000010B50B490A7D4B7D9A4205D8CA
:105370009C1AE4B2A04209D9002006E005339B1A2A
:10538000DBB29842F8D851F8220010BD9A42FAD107
:10539000F2E700BF0C110020014A07F017BC00BF64
:1053A000700F00200122024B11460020FEF7DCBFE7
:1053B000840100202DE9F043174E96F80141651C49
:1053C000EDB2082D8C4696F8001108BF0025A942C1
:1053D00086461ED006EB4414A04602F11009106860
:1053E0005168474603C708324A45B846F7D1C4E971
:1053F000043E9DF81C20237FC4F818C002F001026F
:1054000023F003031343237786F801512046BDE8B8
:10541000F0830024FAE700BFB4110020054890F89B
:10542000003190F801219A4214BF00EB4310002094
:10543000704700BFB4110020024600780B4B0728CC
:1054400088BF93F8000193F8011188BF107010789D
:10545000814208D0411CC9B2082908BF002103EBD2
:105460004010117070470020704700BFB411002039
:105470002DE9F74F0190FFF7D1FF044698B903B02B
:10548000BDE8F08FBBF1000F05D0002D08BF4D46E1
:105490005FE0CA465DE0CB465BE04FB9E3685B4541
:1054A000EDD0AB425EE000250A26AB462F46AA4669
:1054B000237FD4F80C90C3F3400803F0010300935A
:1054C0006EB9294A29492A4840F6430306F0A5FC4B
:1054D00086F31188BFF36F8F0323184602DF013E66
:1054E000F6B2B8F1000F15D1224B01989C604246EC
:1054F0004146FEF739FF68B11B4A1F491C4840F678
:10550000520306F08AFC88F31188BFF36F8F0323E0
:10551000184602DF194991F8003191F801219A42A9
:1055200006D00133DBB2082B08BF002381F800311D
:10553000FFF774FF04460028A1D0B8F1000FB7D1DF
:10554000009B002B9ED1BAF1000FA2D0002F08BF04
:105550004F46237F9A07ABD4DB079ED4E3685345BD
:105560008DD0BB42A4D18AE70BFF0000D6FF00001C
:105570005AF8000074010020D1FF0000B41100208F
:1055800010B50E4A0146137D507D984208D052F85E
:1055900023400133DBB2052B08BF0023137514B978
:1055A0000024204610BD0023206823600223A16050
:1055B0002371214607F04BFEF3E700BF9C1100204A
:1055C0007FB5304C304D314E04220023A382A81801
:1055D0002B46142107F0A2FA0422B0183346082102
:1055E00007F09CFA0420CDE90260CDE9004504F102
:1055F0001503227D052107F031FE254B0522181DDC
:10560000442107F08BFA234B0722181D082107F0CD
:1056100085FA204807F09BFA044668B91E4A1F49DC
:105620001F4840F6061306F0F8FB84F31188BFF319
:105630006F8F0323184602DF1A4A2046111F07F016
:10564000C2FA144807F083FA044668B9124A1349AB
:10565000134840F60D1306F0E0FB84F31188BFF306
:105660006F8F0323184602DF0F4A2046111F07F0F1
:10567000AAFA0E4B04221A80FFF772FD002004B034
:1056800070BD00BF9C110020481100202411002093
:10569000B40F0020780F00200BFF00004BFF00002C
:1056A0005AF80000700F0020680F0020740F0020CF
:1056B00010B5244B244C186086B001F08DFE237881
:1056C0001BB9FEF72BFE01232370204A022111741F
:1056D000117604231E491370137205911D4904911C
:1056E0001D4903911D4902910C21CDE900210020A3
:1056F0001B4A0321FFF7AAFB70B11A4A1A491B483B
:1057000040F25B2306F089FB002383F31188BFF38B
:105710006F8F0323184602DF01220021144808F08E
:10572000BEFC01F099F950B9FFF74AFF38B907F00C
:10573000A0FF20B906B0BDE8104007F02BBE06B0B0
:1057400010BD00BFB8120020171A00201415002049
:1057500007D90000BD7B0000617B0000D41200204F
:10576000341500200BFF000046FF00005AF800002F
:10577000BC12002010B586B007F013FE70B1314A9C
:105780003149324840F2073306F047FB002383F3E8
:105790001188BFF36F8F0323184602DF2C4B0024C0
:1057A000A3F800412B4B9C8201222146684608F059
:1057B00076FC294B224621460320C3F808D0FEF789
:1057C000D3FD68B11F4A2549204840F2623306F0F4
:1057D00024FB84F31188BFF36F8F0323184602DF85
:1057E0004FF0FF324FF0FF33684604F023FE00F025
:1057F000F9FD70B1134A1449144840F26F3306F0B2
:105800000CFB002383F31188BFF36F8F032318462B
:1058100002DFFFF7D5FE70B10A4A0B490B484FF47F
:105820005F7306F0FAFA002383F31188BFF36F8FDA
:105830000323184602DF0021012006B0BDE8104016
:10584000FFF7CCBB0BFF000046FF00005AF800003A
:10585000B41100200C110020A4010020DBFF000087
:105860002DE9F043454EDFF8188187B0D6E90001F5
:1058700005AA07F0B2F9074600287BD0059C6CB951
:105880004049414840F6D813424606F0C6FA84F330
:105890001188BFF36F8F0323184602DF059D2B7914
:1058A000022B57D170680022314607F09EF9AC6890
:1058B000ACB1237803F0FF096BB9314A3349324860
:1058C0004FF4386306F0A9FA89F31188BFF36F8F9C
:1058D0000323184602DF2378013BDBB223702B7BC6
:1058E00073B1274A2A49284840F6D73306F095FA7B
:1058F000002383F31188BFF36F8F0323184602DF61
:105900004FF0000985F80C90CDE90175214A00920D
:1059100002F115030521127D042007F0E4FC854205
:105920000DD01D49184840F6DE33424606F075FAA0
:1059300089F31188BFF36F8F0323184602DF002C11
:1059400094D02378002B91D16369002B8ED0A0696D
:1059500098478BE70E490C484FF43763424606F0F0
:105960005CFA002383F31188BFF36F8F032318467B
:1059700002DF7BE707B0BDE8F08300BF6C0F0020BB
:105980000BFF0000880401005AF80000E3FF00004C
:10599000FF0501009C110020F8FF000007B501225F
:1059A0000192027F02F00102009202690346D0E9EF
:1059B000050101F093F978B177300DD0084A094913
:1059C00009484E2306F029FA002383F31188BFF318
:1059D0006F8F0323184602DF03B05DF804FB00BF9E
:1059E000080001004A0001005AF8000008B502480A
:1059F000FDF7C2FE002008BDB0EE00002DE9F34126
:105A00002A4E2B4FDFF8AC804FF0FF324FF0FF33C0
:105A1000304604F0B9FC0028F6D090F9053001902A
:105A20005A1E032A2ED8022B24D100220023012142
:105A30000020FDF767F8044618B10146019800F010
:105A400071FB019B00221A6001A8FFF7C9FB002C23
:105A5000DAD0204607F094FF21460546002007F0E3
:105A600093FF2B8A04462846E3B1FDF745FE05F077
:105A700031F9ECE74FF0FF324FF0FF330120FDF733
:105A800031F8D8E70C4840F206233A46414606F082
:105A9000C4F9002484F31188BFF36F8F03231846E1
:105AA00002DFCEE702F0B6F9E1E700BFC41500203F
:105AB0005E000100FF0501005AF8000073B5104DAB
:105AC000104E0DF1020101A8FFF7ECFA0028F8D101
:105AD000019B6BB1FFF7FEFA019C204607F023FC07
